:100000000C9480010C94C4010C94DF010C94C40185
:100010000C94C4010C94C4010C94C4010C94C4014C
:100020000C94C4010C94C4010C945E150C94C4018E
:100030000C94C4010C94C4010C94C4010C94C4012C
:100040000C94C4010C94C4010C94C4010C94C4011C
:100050000C94C40129003A003B003C003D003E00E6
:100060003F004000410042004300440045004C0076
:10007000460047004800000035001E001F00200019
:1000800021002200230024002500260027002D0047
:100090002E002A0049004A004B0000002B001400EB
:1000A0001A000800150017001C0018000C001200B0
:1000B00013002F00300028004C004D004E000000BF
:1000C000390004001600070009000A000B000D00AB
:1000D0000E000F003300340032000000000000006A
:1000E00000000000E10064001D001B000600190074
:1000F000050011001000360037003800E50001301F
:100100000000520000000000E000E300E2000000F8
:10011000000000002C00000000000000E6000000CD
:100120007600E400500051004F0000000100010083
:1001300001000100010001000100010001000100B7
:1001400001000100010001000100010001000000A8
:100150000100010001000100010001000100010097
:100160000100010001000100010001000100010087
:100170000100000001000100010001000100010078
:100180000100010001000100010001000100010067
:100190000100010001000000010001000100010058
:1001A0000100010001000100010001000100010047
:1001B000010000000000000000000000010001003C
:1001C0000100010001000100010001000100010027
:1001D000010001000100010000000100000000001A
:1001E000010001000100000000000000010000000B
:1001F00000000000010001000100010001000100F9
:100200000100000009023B00020100A0FA090400FD
:100210000001030101000921010100012240000742
:100220000581030800010904010001030000000921
:100230002101010001223200070583030800011299
:1002400001100100000008626B69870100010200D3
:100250000114034D00590053005400450052004959
:100260000055004D000000200363006F007300651F
:10027000007900660061006E006E00690074007510
:1002800000740074006900000004030904050109FA
:1002900080A101850319012AB700150126B7009531
:1002A0000175108100C0050C0901A1018504190127
:1002B0002AA002150126A002950175108100C00533
:1002C000010906A101050719E029E7150025019597
:1002D0000875018102950175088103050719002938
:1002E000FF150026FF009506750881000508190115
:1002F0002905950575019102950175039103C000CB
:1003000011241FBECFE5D8E0DEBFCDBF04B603FE8B
:1003100024C08091BB029091BC02A091BD02B0911B
:10032000BE028730904BA740B04BB9F41092BB028D
:100330001092BC021092BD021092BE0214BE84B78D
:10034000877F84BF0FB6F894A89581B5886181BD79
:1003500011BC0FBEE0E0F8E3099510E0A0E6B0E0C4
:10036000E4E4F2E302C005900D92A83EB107D9F78C
:1003700022E0A8EEB0E001C01D92AB3BB207E1F76E
:100380000E94CD150C9402190C940000A82FB92FCF
:1003900080E090E041E050EA609530E009C02D91A6
:1003A00082279795879510F084279527305EC8F3AC
:1003B0006F5FA8F30895EADF8D939D930895CF931F
:1003C000CFB7CF93DF93C395839BE9F7839B10C08F
:1003D000839B0EC0839B0CC0839B0AC0839B08C079
:1003E000839B06C0C0919202C395C09392028EC0B7
:1003F0006F93C0919102DD27C756DD4F2F9365E5BE
:10040000839B03C02F916F91E1CF0F931F934F9365
:1004100020E040E15F9300B30C7003FB27F93F93AA
:1004200050E03BE039C01C7040642F77012F5F5FC4
:100430001EC0406810B31C702F7752501FC040641C
:1004400000B32F770C70D1F15F5F00C023C0406212
:1004500010B32F771C7091F15F5F00C025C00C7046
:100460001027515012F45D5F0000115027952C3F6A
:1004700010B3C8F61C700127015027952C3FC8F611
:100480004227499300B30C7010274F7311502795E2
:100490002C3FA8F64695469510B31C7079F00127BD
:1004A000015027952C3F98F66B5A60F3315000B3FA
:1004B000B0F600C010E81ABF00271CC03B503195B1
:1004C000C31BD04010E81ABF0881033C21F10B3454
:1004D00011F120918E021981110F1213EDCF4A8173
:1004E000441F093679F10D3211F0013E29F74F70A2
:1004F00009F0042F009397023F915F914F911F9154
:100500000F912F916F91CAB7C7FD5DCFDF91CF914A
:10051000CFBFCF91189520919702222369F31091B4
:100520009502112309F049C034300AF448C03093D1
:10053000950220939002109191023BE0311B309381
:1005400091023DC0009195020130BCF50AE54F7063
:1005500049F430916D0034FD33C000936D00CBE65B
:10056000D2E032C0433059F0443091F030917602FD
:1005700034FD26C000937602C7E7D2E025C0309153
:10058000AF0234FD1DC00093AF02C0EBD2E01CC02F
:100590003091820234FD14C000938202C3E8D2E09D
:1005A00013C0052710E000C0000002BB1AC00527D9
:1005B00010E0221F1DC010E021C04AE502C032ED4C
:1005C000432FC4E1D0E032E011B31C60939A02B330
:1005D00011BB5CE020E865E320FF052702BB2795FF
:1005E00017951C3FF0F66695B8F7B1F720FF052781
:1005F00002BB279517951C3FD0F62795179517FF37
:10060000052700001C3F02BBB0F629913A9519F767
:10061000037F10919602110FC651D04002BB11F01A
:1006200010938E0210E81ABF086011B3137F402F99
:10063000437F54E05A95F1F702BB11BB42BB5CCF3C
:1006400081E0089581E008950C94220308950C94AC
:1006500026031F93CF93DF9300D000D00F92CDB726
:10066000DEB749835A836B8330910E0189819A8169
:1006700031111DC06623B9F02223A9F00E94DB12BC
:10068000182F682F89819A810E94871269817A8147
:10069000812F0F900F900F900F900F90DF91CF91BF
:1006A0001F910C94DB030E94B312182FEFCF0E940E
:1006B000DB1269817A81EDCFFC01262F40815181C7
:1006C0006281738184810C942903CF93DF93EC01C1
:1006D00060E00E945C03BE01DF91CF910C94270380
:1006E0000E9497150E942514811102C00E94C9140E
:1006F0000C94DE050C94E10508950E94F10D0E9412
:100700007C032FEF84E39CE0215080409040E1F790
:1007100000C000000C9482150F931F93CF93DF93BA
:10072000EC0161E00E945C038C01BE010E94240385
:10073000882329F1BE01C8010E9489078823F9F0A6
:10074000BE01C8010E94DB078823C9F0BE01C801B1
:100750000E94FE08882399F08A81882339F00115C8
:100760008CE5180751F00F3D1C4579F0CE01DF9163
:10077000CF911F910F910C9420030E947D0380E084
:10078000DF91CF911F910F9108950E94C914F7CF67
:1007900008950C94C80381E008950C94CB03CF9383
:1007A000C82F0E94C9038C2FCF910C94CD0390E0E9
:1007B00080E008950895972F70E022E1929F600DE8
:1007C000711D1124FB019CE6899FE00DF11D112490
:1007D000EE0FFF1FEC5AFF4F859194910895FC0195
:1007E000EE0FFF1FEC5FFD4F859194910895CF931D
:1007F000DF930E94DB030E940305EC01811520E5D5
:10080000920708F041C0811530E4930708F0B4C0A6
:10081000803E910518F5803C910508F09DC0883A0E
:10082000910570F4853A910508F08EC081309105EC
:10083000F9F00097E9F00497D8F4D0E0C0E018C0D0
:100840008F3B9105D0F7C85AD0E0CC0FDD1FC259BD
:10085000DF4F0990D881C02DD4640AC08115904221
:1008600058F4C11581E0D80718F4C83ED10528F71F
:10087000CE01DF91CF910895C11590E3D90708F01B
:1008800071C0CE019F706AC0811525E5920758F5A9
:10089000811534E5930708F09EC0811542E5940761
:1008A00050F4C11581E5D80708F469C0DC2FCC27C6
:1008B000C16FD06ADDCF982F969596959E012370D3
:1008C0003327C115D34508F077C0C1E0D0E002C09E
:1008D000CC0FDD1F2A95E2F720E2929FC001112480
:1008E000C82BD92B67C0C11589E5D807A8F4C11555
:1008F00098E5D90708F074C0C11526E5D20708F0BD
:100900009CCF8C2F0E949A05C82FD0E0DC2FCC27DB
:10091000CC27DF71D062ACCFC1153AE5D30708F41C
:1009200064C0CE0190568115904208F086CF8D2F7D
:100930008F710E949A0590E0982F882788279F71D1
:100940009C012C2BE901E6CFC55AD0E0C456DF4FFD
:10095000C881D0E0D0648CCF805C91090E94EF0305
:10096000EC0186CFCE019927D3FF03C0EC01D86CF0
:100970007FCFEC01D06C7CCFDF70D06A79CFCE0115
:10098000E4E096958795EA95E1F783702C2F2695FC
:100990002695237090E2299F90011124382B8C2FEB
:1009A0008370C1E0D0E002C0CC0FDD1F8A95E2F772
:1009B000C22BD32BDC685CCFC1E0D0E002C0CC0FEF
:1009C000DD1F2A95E2F730E2939FC0011124C82B66
:1009D000D92BDA684DCFD82FCC27C46FD06A48CF37
:1009E000DC2FCC27C06FD06A43CF8C2F8F700E9432
:1009F0009A0534E0D695C7953A95E1F7CF709C2FCC
:100A0000EC01D06935CF82389105B1F1B0F4813372
:100A1000910509F475C048F48932910509F469C05B
:100A20008A32910509F473C008958533910509F45C
:100A300059C08933910501F10895833E9105A9F1CB
:100A400038F4803E9105F9F0823E910549F1089510
:100A5000863E9105A9F1873E9105C9F1843E910535
:100A600019F520916A0221FF1FC08091690284FD5F
:100A700014C087EE90E00895209169022370A1F0E0
:100A800080EE90E008952091690220FD47C03091EA
:100A90006A0230FF09C024FF44C090E080E004C037
:100AA0002091690222FDF7CF08952091690222FD6D
:100AB0003BC030916A0230FDE3CF24FFF5CFEDCF8C
:100AC0002091690223FFF0CF24FDE7CFD2CF209100
:100AD000690223FD2CC030916A0231FFEECF84EE13
:100AE00090E008952091690225FFDECF89E290E031
:100AF00008952091690225FFD7CF85E390E00895FE
:100B00002091690226FFD0CF8AE290E008952091DB
:100B1000690226FFC9CF81E390E0089589E390E060
:100B2000089583EE90E0089582EE90E0089586EEB9
:100B300090E008959091690292FF06C0282F2871D5
:100B40002830F9F4877F846093FF06C0282F28712E
:100B50002831F1F4877E846120916A0220FF06C06B
:100B6000382F38713830D9F4877F816021FF06C073
:100B7000282F28712831D1F4877E816194FD877EEA
:100B80000895282F24712430F9F68B7F8860DCCFFC
:100B9000282F2471243101F78B7E8861DDCF382F17
:100BA0003171313019F78E7F8860E0CF282F2171A5
:100BB000213121F78E7E8861E1CF08950C94DD0507
:100BC00008950C94E00594E0899FF0011124E35B03
:100BD000FD4F60817181828193810895089580EA3B
:100BE0008A95F1F70895F894E82FE295EF70F0E018
:100BF00031A9282F2F7081E090E001C0880F2A953D
:100C0000EAF7982F9095932391AB92A9892B82AB09
:100C1000789408950F931F93CF93DF9382E30E94FC
:100C2000F30583E30E94F30584E30E94F30585E363
:100C30000E94F30586E30E94F30587E30E94F30513
:100C4000CFE9D0E001EB10E089910E94F3050C1789
:100C50001D07D1F7E5E3F2E0ADE4B2E011921192A5
:100C6000119211921D921D921D921D9282E0ED34FF
:100C7000F807A1F786E00E94E106DF91CF911F916E
:100C80000F910C9470034F925F926F927F928F92AC
:100C90009F92AF92BF92CF92DF92EF92FF920F930B
:100CA0001F93CF9301EB10E035E3E32E32E0F32EF8
:100CB000C0E0CC24C394D12CF80181918F01F89429
:100CC000E82FE295EF70F0E021A98F70260102C0B5
:100CD000440C551C8A95E2F7C201922F982B91ABD8
:100CE00092A98095892382AB78940E94EF05AFE9A1
:100CF000B0E090E080E0812C912C54014D91E42FE4
:100D0000E295EF70F0E020A930E04F7002C0359519
:100D100027954A95E2F720FD4EC0412C512C320117
:100D20004394082E04C0440C551C661C771C0A947E
:100D3000D2F7B301A201842A952AA62AB72A0196DE
:100D400082319105D9F6F801319780810E94F3052F
:100D5000F70180819181A281B38188169906AA0644
:100D6000BB0669F180829182A282B38281E0C82BA6
:100D7000F4E0EF0EF11C40E0073B140709F09CCFB4
:100D80002C2F46E06DE472E085E392E00E94E206DB
:100D90000E947A038C2FCF911F910F91FF90EF90BB
:100DA000DF90CF90BF90AF909F908F907F906F908B
:100DB0005F904F90089540E050E0BA01BCCF80E0D2
:100DC000D6CF0895FF920F931F93CF93DF93F82E02
:100DD000D92F8B01C42F222349F081E08093EA00B0
:100DE0000E9443159093E9008093E8008091EA0007
:100DF000882399F08091E8009091E9000E944F15B6
:100E0000069758F0EF2DFD2FD80190E080E0D0E05C
:100E10008C179D0744F01092EA00DF91CF911F914B
:100E20000F91FF90089501911191219131910D93AE
:100E30001D932D933D930196EBCF0F931F93CF936B
:100E4000DF93C42FD22FFC0182818823C9F0409305
:100E5000ED000E9443159093EC008093EB0080E23C
:100E60008C0F883008F050C0C77081E001C0880F37
:100E7000CA95EAF7DF91CF911F910F910C94840BE3
:100E80001091ED00141335C08091EB009091EC00AF
:100E90000E944F15883C910560F5C0E2CD0F1D17EB
:100EA000B9F080E2810F883040F4177081E001C012
:100EB000880F1A95EAF70E948B0BC83048F481E03E
:100EC0009D2F977001C0880F9A95EAF70E94840BB6
:100ED000802F0E94710BC830B8F4D77081E001C038
:100EE000880FDA95EAF7DF91CF911F910F910C945B
:100EF0008B0B80E28C0F883038F4C77081E001C022
:100F0000880FCA95EAF7EFCFDF91CF911F910F912C
:100F100008950F939C01CB01243F4CE5340759F110
:100F2000A8F4293DFCE53F0701F12A3D4CE53407D3
:100F3000D1F1283D3C4591F406E221EE41EE68ED09
:100F40007CE50E941D0780E00F910895263FFCE597
:100F50003F07E9F0B0F0273F3C45F9F0FC01828102
:100F6000882339F11092ED00EFCF07E225EE45EE30
:100F700069ED7CE5E6CF06E221EE40EE64EF7CE52C
:100F8000E0CF07E225EE44EE65EF7CE5DACF06E23E
:100F900021EE42EE66EF7CE5D4CF07E225EE46EE89
:100FA00067EF7CE5CECF08E221E045EE6AED7CE517
:100FB000C8CF81E0C9CFCF93DF93EC01FB018281E1
:100FC000882309F419C1C230FCE5DF07C0F1C6313E
:100FD0009CE5D90730F09E012B5F3C452930310557
:100FE00070F50E94381490936A0280936902C031B0
:100FF000ECE5DE0709F4CFC008F05BC0C8308CE533
:10100000D80709F4B6C088F5C430ECE5DE0709F46A
:10101000A8C0C0F4C2308CE5D80709F49CC0809108
:1010200069028260C330DC4509F498C0809169028E
:1010300090916A020E9446140E94F10D80E0DF91B7
:10104000CF910895809169028061C630ECE5DE079A
:1010500009F484C0809169028860C730DC4508F4D7
:101060007DC080916902806279C0CC308CE5D80760
:1010700009F489C070F4809169028C60CA30ECE593
:10108000DE0709F46BC008F478C0809169028E7F96
:1010900065C0CE308CE5D80709F479C0809169022B
:1010A0008B7FCF30DC4508F459C0809169028F7E78
:1010B00055C0CC3FECE5DE0709F457C030F5C3312D
:1010C0008CE5D80709F46FC078F4C131ECE5DE0790
:1010D00009F465C0C231DC4509F0A8CF0E94F10DCA
:1010E000809169028F773AC0C5318CE5D80709F441
:1010F00062C008F476C080916A028160CB3FDC4513
:1011000009F094CF80936A0291CFC115FDE5DF0706
:1011100009F44DC088F480916A028D7FCE3F9CE532
:10112000D90781F380916A028E7FCF3FDC4550F36F
:1011300080916A028360E6CFC230FDE5DF0709F4E3
:1011400059C008F444C080E0C330DD4509F06ECFDB
:101150000E94CB146BCF80916902816080936902F9
:1011600065CF809169028460F9CF80916A028260C4
:10117000C9CF809169028064F1CF0E94F10D809106
:1011800069028068EBCF809169028D7FE7CF809103
:101190006902877FE3CF809169028F7DDFCF8091E5
:1011A00069028F7BDBCF80916902837FD7CF8091EB
:1011B0006A028C7FA7CF8091690282FB992790F900
:1011C00021E0922790FB82F990FB83F9C7CF8091B1
:1011D0006A02982F909591708E7F892B90FB81F9F0
:1011E00091CF0E94F10D90916902892F97FB87F9A9
:1011F0008058B4CF81E0ACCF81E021CFCF93DF9393
:10120000EB0186319C4511F50E9470139A81992358
:1012100099F08A7A91E009F490E09093EE008111C0
:1012200009C089E20E944B130E94BC1380E0DF9149
:10123000CF91089585E3F6CF8091EE00811104C02F
:1012400089E20E945213F0CF85E3FBCF81E0EFCF1C
:101250009093F4008093F3000895E091F300F091EF
:10126000F400309721F00190F081E02D099480E0A6
:101270000895E091F300F091F400309721F002809E
:10128000F381E02D099408952091F1003091F2004E
:101290002817390771F09093F2008093F100E091E4
:1012A000F300F091F400309721F00680F781E02DF3
:1012B000099408952091EF003091F0002817390724
:1012C00071F09093F0008093EF00E091F300F091C3
:1012D000F400309721F00084F185E02D0994089501
:1012E00084B7806884BF84B7806884BF08950895F8
:1012F00008950C94770908950C947B090E94700955
:101300000E9478090C94790981E008950C9484096D
:10131000089508950E943C150E940A060E94AB158C
:101320000C947C094F925F926F927F929F92AF9242
:10133000BF92CF92DF92EF92FF920F931F93CF93C2
:10134000DF93CDB7DEB72A970FB6F894DEBF0FBE96
:10135000CDBF0E9488090E9489090E9443060E940D
:101360008609882309F48EC046EFA42E40E0B42EEF
:1013700010E000E0902E802F0E94E3052B013C013D
:10138000F501C190D190E190F1905F01C414D504B2
:10139000E604F70409F470C08091A20181FD0E9467
:1013A000EE05B701A601442555256625772520E0E1
:1013B000C12CD12C7601C394DB01CA018C219D2163
:1013C000AE21BF21892B8A2B8B2B09F44DC02E8394
:1013D0009F824C205D206E207F2081E0452846289A
:1013E000472809F480E088870E9443158160782FA0
:1013F0009A8789874E815F8168858A850E94690AFC
:10140000000F111F000F111FF801EA50FF4F8081DC
:101410009181A281B3818C259D25AE25BF25808336
:101420009183A283B3830E942D099091F5008917BF
:10143000D1F10E942D098093F5002A960FB6F894F9
:10144000DEBF0FBECDBFDF91CF911F910F91FF90F7
:10145000EF90DF90CF90BF90AF909F907F906F9074
:101460005F904F900C94CF032F5FCC0CDD1CEE1CD3
:10147000FF1C223109F0A0CF0F5F1F4F063011056E
:1014800009F078CF8FEF89838A831B820E944315EE
:101490008160782F9D838C8349815A816B818D81F6
:1014A0000E94690AC0CF2A960FB6F894DEBF0FBE1D
:1014B000CDBFDF91CF911F910F91FF90EF90DF9003
:1014C000CF90BF90AF909F907F906F905F904F9024
:1014D0000895CF93DF93CDB7DEB72B970FB6F8946F
:1014E000DEBF0FBECDBF4F83588769877A878B8752
:1014F0001E821D8285E0FE013796DE011196019065
:101500000D928A95E1F749815A816B817C818D81A9
:101510009E812B960FB6F894DEBF0FBECDBFDF9134
:10152000CF910C946710FC01808191810C941D1364
:10153000CF93C82F882309F483C08238C1F40E9456
:101540002D0981FD7DC089E30E944B130E94BC13CD
:101550002FEF81EE94E0215080409040E1F700C0F1
:10156000000089E30E945213CF910C94BC1383387E
:10157000A1F40E942D0980FD63C083E50E944B13F6
:101580000E94BC132FEF81EE94E0215080409040E8
:10159000E1F700C0000083E5E5CF8438A1F40E94A4
:1015A0002D0982FD4DC087E40E944B130E94BC139D
:1015B0002FEF81EE94E0215080409040E1F700C091
:1015C000000087E4CFCF8CEF8C0F813A90F46C2F22
:1015D00080916000909161000E94E214882329F0BC
:1015E0008C2F0E9452130E94BC138C2F0E944B130D
:1015F000BBCF80E28C0F883048F4C77081E001C017
:10160000880FCA95EAF70E947313AECFEBE5EC0F93
:10161000E33040F4F0E0EB51FF4F808190E0CF9158
:101620000C944409C85AC73158F4EC2FF0E0EE0F7F
:10163000FF1FE954FF4F80819181CF910C945A098B
:10164000CF910895882309F44BC0823871F40E9429
:101650002D0981FF45C089E30E944B130E94BC13F2
:1016600089E30E9452130C94BC13833859F40E94EE
:101670002D0980FF35C083E50E944B130E94BC13E7
:1016800083E5EFCF843859F40E942D0982FF28C0EA
:1016900087E40E944B130E94BC1387E4E2CF9CEFC7
:1016A000980F913AF0F290E2980F983050F48770CA
:1016B00091E001C0990F8A95EAF7892F0E9479136A
:1016C000D2CF9BE5980F933020F490E080E00C940B
:1016D0004409885A873120F490E080E00C945A093C
:1016E0000895CF93C82F0E94980AC93349F42FEF69
:1016F00087EE93E0215080409040E1F700C0000069
:101700008C2FCF910C94220B882321F00E9473130D
:101710000C94BC130895882321F00E9479130C9433
:10172000BC130895BF92CF92DF92EF92FF920F9376
:101730001F93CF93DF936C01D62FC72FFC01058138
:1017400002950F70128111110E9490130E9469136B
:10175000E82E882391F01123D1F08C2F807F8034E4
:1017600021F080E28D0F883090F082E00E94071413
:101770000E94691391E0E82EE926BC2EB2949FE006
:10178000B922EB2DF0E0EC5FF64E0C94BB18E12C87
:10179000F4CF0C2F0F70C07F11F00295007F112342
:1017A000A9F0002359F080E28D0F883010F0D1119C
:1017B00009C0802F0E9473130E94BC138D2F0E94BA
:1017C000980A14C0802F0E948313F6CF8D2F0E9499
:1017D000220B002359F080E28D0F883010F0D111D8
:1017E0002CC0802F0E9479130E94BC132B2D2850EF
:1017F000330B2430310520F40E942D090E94CF03C1
:10180000EE2009F493C10E94651380FD8FC1F6019B
:1018100012820E945F130E94EB11C6010E94B70D55
:101820000E945F13DF91CF911F910F91FF90EF9076
:10183000DF90CF90BF900C940C12802F0E948913E0
:10184000D3CFFC2FFF70FF2EC07FC03219F0F2946F
:1018500080EFF822DD2369F0D13049F1112391F1B5
:10186000002351F1F601858180FFA8CF8F70858319
:1018700023C0112381F0011106C00E94A3138F29F8
:101880000E94840BB3CF0130C1F70E94A3138F29AC
:101890000E94A913ABCF011106C00E94B2138F2D75
:1018A0000E948B0BA3CF013009F4A0CFF6CF1123F8
:1018B00029F0063008F09ACF8F2DE2CF053008F0DE
:1018C00095CFEDCF002359F3D93349F4FFEF27EE3D
:1018D00033E0F15020403040E1F700C000008D2F90
:1018E0000E94220B83CF8C2F86958695837069F09A
:1018F000813009F07BCF8D2F9C2F9370111102C086
:1019000090E080E00E945A0971CF8D2F9C2F937038
:10191000111102C090E080E00E94440967CF8C2F33
:10192000837009F041C0111161CF4D2F429546954A
:101930004770440F440F0D2F0F7010E030E020E08F
:10194000042E04C0000F111F221F331F0A94D2F768
:1019500060E070E0CB01D4FF0FC06FE070E080E08A
:1019600090E004C0660F771F881F991F4A95D2F731
:101970006095709580959095C695C695C370602BBF
:10198000712B822B932BC23049F058F4C13019F0DF
:101990000E949D112BCF0E948B1128CF0E94AF1166
:1019A00025CF0E94891122CF8695112311F08C2F0B
:1019B0008170882309F41ACF4D2F429546954770C0
:1019C000440F440F0D2F0F7010E030E020E0042E84
:1019D00004C0000F111F221F331F0A94D2F760E0CA
:1019E00070E0CB01D4FF0FC06FE070E080E090E0CA
:1019F00004C0660F771F881F991F4A95D2F760951C
:101A0000709580959095C695C695C370602B712B87
:101A1000822B932BC23049F058F4C13019F00E9448
:101A20006212E4CE0E945012E1CE0E947412DECE09
:101A30000E94C511DBCECF70112329F08C2F0E949C
:101A4000EB118D2F1DCF8D2F0E948B0B8C2F0E94A1
:101A50000C12CCCED23F89F160F4D03FC9F0D13F17
:101A600029F1112309F442C00111A8CE8C2F8F71E6
:101A700021C0D33F39F1D43FA1F7112369F1CF71D0
:101A80008C2F0E94EB1163E08C2F0E94F213AECEDC
:101A9000112341F0053008F0A9CE8C2F8F710E94E0
:101AA0002F12A4CE063008F0A1CEF7CF8C2F8F7165
:101AB000112369F20E94EB1199CE8C2F8F711123A3
:101AC000C9F3C5CF112329F08C2F8F710E94D61135
:101AD0008DCE0E94D1118ACE81E00E94071402307F
:101AE00008F484CE82E00E94071480CE002359F0CF
:101AF000D93309F0F4CE8FEF97EEE3E081509040B8
:101B0000E040E1F7EACE8C2F8F71A1CF4C2F4F70C0
:101B10006D2FC6010E94D7030E94011167CE4C2F82
:101B20004F706D2FC6010E94DA0360CEDF91CF9116
:101B30001F910F91FF90EF90DF90CF90BF9008958D
:101B40000F931F93CF93DF93EC01688179818A8192
:101B50000E9427138C010E9486120E948811B801EE
:101B6000CE01DF91CF911F910F910C94920BCF93E7
:101B7000DF93EC018B819C81892B29F088819981ED
:101B800089238F3F59F4DF91CF910895CE010E94B0
:101B9000A00DCE01DF91CF910C946503CE010E9480
:101BA0008C038111F3CF0E946913882361F38A812A
:101BB000882349F382E0DF91CF910C9407140E94AF
:101BC00090130E94A0130E94BC1390E080E00E943A
:101BD000440990E080E00C945A090E9459130C9437
:101BE000DF0D0E9480130C94ED0DE92FE295EF704C
:101BF000E250EE3070F4F0E0EC5EF64E0C94BB1860
:101C0000803F19F020F4883E20F481E00895843F5D
:101C1000E1F380E00895883EC0F3813FD1F7F5CF2E
:101C200093FB882780F908950E941D130C94F50DED
:101C3000CF93DF9300D000D00F92CDB7DEB70F90D7
:101C40000F900F900F900F90DF91CF910895CF9349
:101C5000DF9300D000D000D0CDB7DEB726960FB608
:101C6000F894DEBF0FBECDBFDF91CF9108951F93D3
:101C7000CF93DF93C0910F0116E0809110018C1378
:101C800004C0DF91CF911F910895D0E01C9FF00117
:101C90001D9FF00D1124EF5EFE4F40815181628146
:101CA0007381848195810E94270E2196C770E5CFAC
:101CB0004091410150914201609143017091440172
:101CC00080914501909146010C94270E1F93CF936C
:101CD000DF9380914601807FA9F48091430188239E
:101CE00089F080910F01C0911001609141017091C4
:101CF0004201A0914401B0914501D62FD72316E0AF
:101D0000C81304C0DF91CF911F91089590E0109700
:101D100011F0DF3F19F401968770F2CF189F900100
:101D2000199F300D1124F901EF5EFE4F41814713D9
:101D3000F2CF40814613EFCF42814111ECCF438176
:101D400054814A1B5B0B483C510528F780914601A2
:101D50008F70806180934601F901EA5EFE4F8081B9
:101D60008F708061808381E491E00E94B70DDF91E4
:101D7000CF911F910C94370EAF92BF92CF92DF920A
:101D8000EF92FF920F931F93CF93DF93CDB7DEB700
:101D900061970FB6F894DEBF0FBECDBF8C0185E012
:101DA000F801DE011D9601900D928A95E1F7F80188
:101DB00040815181E28081E4C82E81E0D82E60917B
:101DC0004401709145016115710509F461C190915B
:101DD000410120914201892F82238F3F09F458C18C
:101DE000A380B480F0904301F501E61BF70BFF20C0
:101DF00009F4FCC080914601382F307FE83CF105A2
:101E000008F0B2C0311179C0FE2C251323C0941301
:101E100021C0E1101FC08F708061809346010E9435
:101E2000580EC6010E94B70D80914601F8018583C6
:101E30008F2D61960FB6F894DEBF0FBECDBFDF9138
:101E4000CF911F910F91FF90EF90DF90CF90BF90B7
:101E5000AF900895AB2829F0842F85238F3F09F098
:101E600033C180E0F82FF170DF2E80FF3CC08091FD
:101E70000F012091100136E0821315C04D875E8757
:101E80008D859E850E941D13292F22952F7022304B
:101E9000F0F0243018F59F70F1F0F8019581907FF3
:101EA000D1F4D12C1EC090E0389FF001399FF00D85
:101EB0001124EF5EFE4F6181651306C060816413DB
:101EC00003C062816E110FC001968770D5CF9F70DD
:101ED00011F0882331F3805E883018F3C8010E9426
:101EE000B70DFD2CA5CFEE2009F4A2CF80914601BD
:101EF000816080934601F12C9BCF251306C094137B
:101F000004C0F801EE2009F48DC04D875E878D85F1
:101F10009E850E94140E882319F1EE2009F180910C
:101F20004601803270F020914101309142013887A2
:101F30002F831986BB86AA868C87CE0107960E94BE
:101F4000B70D86E0F801A1E4B1E001900D928A9509
:101F5000E1F70E94660E0E94580EFF24F39468CFAA
:101F6000C8010E94B70DF9CF311113C07A2DB98A7B
:101F7000A88A6E2D89890E94180E81E491E00E9442
:101F8000B70D86E0F60111928A95E9F70E94580E86
:101F9000B2CF25130FC094130DC0E1100BC0F80190
:101FA0008583C8010E94B70D86E0F60111928A95DB
:101FB000E9F73ECF4D875E878D859E850E94140E82
:101FC000882371F2EE2061F280914601803208F49C
:101FD000B8CF20914101309142013A8329831B827D
:101FE000BD82AC828E83CE010196A9CFE83CF1057B
:101FF00008F041C0FE2CEE2009F4B2CF25132AC010
:10200000941328C08091460180FD1BC0982F907FBB
:10201000C1F0F8018583903F31F0982F907F905F59
:102020008F70892B8583C8010E94B70D86E0F80167
:10203000A1E4B1E001900D928A95E1F70E94580E5B
:10204000F7CE86E0F801A1E4B1E001900D928A9507
:10205000E1F7EECE4D875E878D859E850E94140E3A
:1020600081116FCF80914601816080934601C80144
:102070000E94B70DDDCE7A2DB98AA88A6E2D898986
:102080000E94180E86E0F60111928A95E9F7D6CFE4
:10209000EE2009F465CF4D875E878D859E850E9471
:1020A000140EF82E882309F45BCF86E0F801A1E432
:1020B000B1E001900D928A95E1F781E491E00E94F0
:1020C000930A0E94660EBACF81E08E25CBCE1F9375
:1020D000CF93DF93CDB7DEB72C970FB6F894DEBF62
:1020E0000FBECDBF4F83588769877A878B879C87C0
:1020F000CE0107960E94BC0E882369F08A859B85D5
:10210000892B39F04F815885842F85238F3F09F023
:1021100071C016E05FC086E0FE013796DE011196C1
:1021200001900D928A95E1F78A859B85892B89F329
:102130008F81988589238F3F61F32091100130E0D2
:10214000C90101968770992740910F014817190618
:1021500071F40E94F10D1092100110920F0186E0AF
:10216000E1E4F1E0DF011D928A95E9F7D2CF96E034
:10217000929FD001939FB00D1124AF5EBE4FFE0120
:10218000319601900D929A95E1F7809310010E948B
:10219000370EBFCF819FC00111248F5E9E4F0E94DA
:1021A000BC0E8823E9F0E0910F011E9FF00111247D
:1021B000EF5EFE4F40815181628173818481958100
:1021C0000E94270E80910F0190E001968770992759
:1021D00080930F0180910F01909110018913DACF44
:1021E0002C960FB6F894DEBF0FBECDBFDF91CF9116
:1021F0001F91089569857A858B859C850E94270E9D
:1022000088CFEF92FF920F931F93CF93DF938C01B0
:10221000892B81F0F12CEE24E394E8012196F8015A
:102220008491843770F4843008F05FC08130B1F05D
:102230008230A1F1DF91CF911F910F91FF90EF902C
:102240000895853709F44CC008F43DC09CE7980F09
:10225000903780F78F770E94220B49C00E5F1F4F87
:10226000FE01849190E2980F983060F48770FE2D03
:1022700001C0FF0F8A95EAF78F2F0E9493130E94E7
:10228000BC1302C00E94980A8F2D815030F2EFE9F2
:10229000FFE03197F1F700C00000F7CF0E5F1F4F4E
:1022A000FE01849190E2980F983050F48770FE2DD3
:1022B00001C0FF0F8A95EAF78F2F0E949913DFCF95
:1022C0000E94220BE1CF0E5F1F4FFE01C491C1504F
:1022D000D8F28FE99FE00197F1F700C00000F7CF37
:1022E0000E5F1F4FFE01F490CFCF0E94980A8E011F
:1022F000CBCF08950C9479110E947A1160939101CB
:102300007093920180939301909394010C94DF0D4C
:1023100008950C947C110F931F93009191011091DB
:1023200092012091930130919401602B712B822BAB
:10233000932B1F910F910C947C110F931F9300917D
:1023400091011091920120919301309194016023A9
:102350007123822393231F910F910C947C110F936F
:102360001F9300919101109192012091930130915E
:10237000940160277127822793271F910F910C9456
:102380007C110C9479110C94C1110E94C3116093BB
:102390008D0170938E0180938F01909390010C9426
:1023A000DF0D60E070E0CB010C94C5110F931F931B
:1023B00041E050E060E070E08A019B0104C0000F42
:1023C000111F221F331F8A95D2F7C901B8011F912F
:1023D0000F910C94C5110F931F9341E050E060E002
:1023E00070E004C0440F551F661F771F8A95D2F70F
:1023F00080918D0190918E01A0918F01B0919001FB
:102400008A019B01082B192B2A2B3B2BC901B801F0
:102410001F910F910C94C5110F931F9341E050E051
:1024200060E070E004C0440F551F661F771F8A9557
:10243000D2F7CB01BA016095709580959095009187
:102440008D0110918E0120918F01309190016023B8
:102450007123822393231F910F910C94C5110F9325
:102460001F9341E050E060E070E004C0440F551F4E
:10247000661F771F8A95D2F780918D0190918E010A
:10248000A0918F01B09190018A019B010827192723
:102490002A273B27C901B8011F910F910C94C51140
:1024A0000F931F9300918D0110918E0120918F0148
:1024B00030919001602B712B822B932B1F910F91E8
:1024C0000C94C5110F931F9300918D0110918E01F3
:1024D00020918F01309190016023712382239323F7
:1024E0001F910F910C94C5110F931F9300918D01B3
:1024F00010918E0120918F013091900160277127FA
:10250000822793271F910F910C94C511089522E102
:10251000929F800D1124982F977041E001C0440FC5
:102520009A95EAF786958695869595E0899FF001BC
:102530001124E95BFE4F90E080E070E05191DF01F3
:1025400011979B01082E02C0369527950A94E2F751
:10255000217021952527242325272C93019685304A
:10256000910561F7089522E1929F800D1124982F23
:10257000977086958695869525E0829FF0011124B7
:10258000E95BFE4F50E040E080E0219130E0092E11
:1025900002C0369527950A94E2F721703327042E5E
:1025A00001C0220F0A94EAF7822B4F5F5F4F45303C
:1025B000510559F70895BF92CF92DF92EF92FF92A3
:1025C0000F931F93CF93DF938C01C0908D01D09018
:1025D0008E01E0908F01F090900180919101909197
:1025E0009201A0919301B0919401C82AD92AEA2AB4
:1025F000FB2ACFE1D0E0BC2ED701C6010C2E04C0CF
:10260000B695A795979587950A94D2F780FD0EC049
:10261000219788F7B12C8B2DDF91CF911F910F91CE
:10262000FF90EF90DF90CF90BF900895B8018C2F6E
:102630000E94F703019761F3EECFCF93DF93EC0194
:102640000E94DB12BE01DF91CF910C94F7031F9320
:10265000CF93DF93EB0190910E01992331F0CB01E1
:10266000DF91CF911F910C941D13882379F0CB013A
:102670000E94DB12182F682FCE010E948712BE0124
:10268000812FDF91CF911F910C94F703CB010E9412
:10269000B312182FF4CF682F8091600090916100E1
:1026A0000C941815682F80916000909161000C9433
:1026B0001A1580916000909161000C941C15809116
:1026C00095018595859585950895809195018770EB
:1026D000089590919501977081E009F480E0089544
:1026E0008091A10108959091A101892B8093A1016E
:1026F000089580959091A10198239093A101089548
:102700001092A10108959091A001892B8093A001BE
:10271000089580959091A00198239093A001089529
:102720001092A001089590919F01892B80939F01A1
:102730000895809590919F01982390939F0108950B
:1027400010929F01089580919601089508950C9428
:10275000A61390919601981721F0809396010C94FE
:10276000A713089580919601882329F0109296016D
:1027700080E00C94A7130895E0916000F09161004F
:102780008091A1018083E0916000F09161008081DF
:102790009091A001892B8083E0916000F09161000D
:1027A000808190919F01892B80839091960199233C
:1027B00081F0E0916000F09161008081892B80833D
:1027C00080916000909161000E94D01481110E945C
:1027D000B21380916000909161000C9439090895C2
:1027E0000C94EF1398E0899F90011124622B609361
:1027F00095010E94EB1180919501859585958595B0
:102800000C94F0131092950180E00C94F0139091C9
:1028100095018095892380939501282F277071F465
:10282000282F082E000C330B9217130639F08595CC
:10283000859585950E940C120C94021408956FEFF3
:102840007FEF90E080E00C94EC1890E080E00E9434
:10285000C91821E08C3E9E4F09F020E0822F089598
:1028600082E090E00C94C11883E090E00C94C118D1
:10287000CF9384E090E00E94C118C82F81E290E0DD
:102880000E94C118982F8C2FCF910895CF93C92FF4
:10289000682F84E090E00E94CF186C2F81E290E0D6
:1028A000CF910C94CF18AB01BC018FE090E00C9459
:1028B000E018AB01BC0183E190E00C94E01860E00B
:1028C00070E0CB010C94591460E070E0CB010E94E1
:1028D00053140C945F146CEE7EEF90E080E00E9445
:1028E000EC1860E082E090E00E94CF1860E083E0A6
:1028F00090E00E94CF1810929101109292011092D4
:1029000093011092940160E084E090E00E94CF185F
:1029100060E081E290E00E94CF1860E085E090E006
:102920000E94CF1860E086E090E00E94CF186FEF21
:1029300087E090E00E94CF1840E050E0BA0188E0C4
:1029400090E00E94E01860E08DE090E00E94CF18D7
:1029500040E050E0BA0188E190E00E94E01860E0B9
:1029600087E190E00E94CF1840E050E0BA018CE18E
:1029700090E00E94E01860E080E290E00E94CF18B2
:1029800040E050E0BA0188E190E00E94E0180C9429
:1029900064140C946B14682F8EE090E00C94CF18A4
:1029A0009C012E5F3F4FAC01485F5F4F80E02417D2
:1029B000350709F40895F90191919F019923B9F31D
:1029C0008F5FF5CF662349F0FC013296089621917E
:1029D000261729F0E817F907D1F780E0089581E07C
:1029E00008959C01FC0132969FEF80E041914617CB
:1029F00051F09F3F19F4411101C0982F8F5F86302D
:102A0000A9F79F3F09F40895290F311D97FD3A95C5
:102A1000F90162830895FC013296089621912613EC
:102A200003C0DF0111971C92E817F907B9F7089561
:102A30000C94F1140C940B15029626E0FC011192F3
:102A40002A95E9F7089508950895CF930E942315D4
:102A50000E9443060E942415C0E08C2F0E94E305CB
:102A6000672B682B692B31F4CF5FC630B1F780E05C
:102A7000CF91089581E0FCCF8BE083BF8AEF8CBFBC
:102A800082E089BF08952FB7F894809165029091F4
:102A90006602A0916702B09168022FBF08959C0161
:102AA0004FB7F8948091650290916602A0916702F9
:102AB000B09168024FBF821B930B089578941F92C8
:102AC0001FB61F9211248F939F93AF93BF93809152
:102AD000650290916602A0916702B091680201962A
:102AE000A11DB11D8093650290936602A0936702B9
:102AF000B0936802BF91AF919F918F911F901FBEBD
:102B00001F90189588E198E00FB6F894A89581BDBC
:102B10000FBE91BDA895F894D8E0CEE528E329939F
:102B200020E0299314BEFFCF08950C941F140E9437
:102B300043068FE39CE90197F1F700C000000E9473
:102B4000430680E00E94E30560FF04C00E949515E3
:102B50000C94821508950E942514811102C00E94D0
:102B6000C9140E9430148093A2010E9438149093DB
:102B70006A02809369020E943414682F70E090E02A
:102B800080E00E94891160918D0170918E01809189
:102B90008F01909190010C94C3110E9443158C01F8
:102BA0000E947E090E94A0188B9A80E0815079F5DE
:102BB0008B9878940E948A090E94C4160E94280962
:102BC000FFEF20E732E0F15020403040E1F700C055
:102BD0000000C0E0DCE080919202882311F11092A5
:102BE00092020E9443158C010E94B01780919802B6
:102BF000882329F08091760284FD0E9492090E9428
:102C00006B160E9488090E948909C0E0E4CFA8954C
:102C1000EFE9FFE03197F1F700C00000C7CFC1E056
:102C2000DACFC8010E944F15069710F4CC23E1F2C9
:102C30000E942515C82F882391F3F89491B3939A95
:102C4000892F8C6081BB82B38D2782BB8FE7E8E33D
:102C5000F1E08150E040F040E1F700C0000082B3B5
:102C60008D2782BB91BB93987894B5CF8091340225
:102C700008950895CF93DF9300D00F92CDB7DEB7BC
:102C80009091A501981307C02091A3013091A40150
:102C90002617370791F08093A5017093A4016093E4
:102CA000A30189837B836A838091AF0284FF05C07F
:102CB00063E0CE0101960E94AC170F900F900F9029
:102CC000DF91CF910895BC0184E00C943A16BC01C9
:102CD00083E00C943A16CF93DF93CAE0D0E0809162
:102CE000760284FF1AC08091B1019091B2019817C9
:102CF00089F028E0829FC001112468E08D549E4F26
:102D00000E94A8178091B10190E001968F709927D9
:102D10008093B101DF91CF9108950E94B0178FE9A0
:102D20009FE00197F1F700C000002197C1F6F2CFB4
:102D3000CF93DF93EC01A091B201B0E0CD010196F9
:102D40008F7099272091B101281779F093E0AA0F8D
:102D5000BB1F9A95E1F7AD54BE4F98E0FE0101907C
:102D60000D929A95E1F78093B2010E94B0170E94EC
:102D70006B1688E0FE01A9EAB1E001900D928A95F8
:102D8000E1F7DF91CF91089582E690E00895FC018C
:102D9000808180768032F1F48181813061F4848198
:102DA0009581892BB9F489EA91E0909394028093FC
:102DB000930288E00895823041F483E392E0909397
:102DC00094028093930281E008958A3029F48381EC
:102DD0008093330280E008958930E1F78281938106
:102DE0008115924069F484819581892B49F481E0B1
:102DF0008093A801868197819093A7018093A60173
:102E00008FEF0895FC018091A6019091A701892B75
:102E100061F08091A801813041F490819093340257
:102E20001092A7011092A60108958FEF08950895BA
:102E3000FC019381933059F130F49130C1F092301C
:102E4000F1F080E00895913209F440C09232C9F760
:102E500084819581009709F44AC0019791F78DE824
:102E600092E0909394028093930282E308958FE31B
:102E700092E0909394028093930282E1089584E01B
:102E800092E090939402809393028BE30895828161
:102E90008130A1F0882351F0823099F681E592E0EB
:102EA000909394028093930284E1089589E892E0DC
:102EB000909394028093930284E0089587E692E0D1
:102EC000909394028093930280E2089582818823F4
:102ED00031F0813009F0B5CF8FE292E002C086E197
:102EE00092E0909394028093930289E008958FEB8F
:102EF00092E0909394028093930280E408951F934C
:102F0000CF93DF93E82F792F162FEA01888184FF72
:102F10001CC0298188E828272983CE010296DC017C
:102F20002E2F372F512F5E0FF90121912D939F01E5
:102F3000452F4E1B1416C4F3612F0E94DB011C5F4A
:102F40001883DF91CF911F9108958AE58883E5CF9B
:102F500046E752E00C947F174FEA52E00C947F173B
:102F6000CF93DF9360919502635067FD12C080910B
:102F70009102CCE0D0E0C81BD109C756DD4F80914B
:102F80009002803108F054C0CE010E9417171092B1
:102F9000950280916D0084FF3EC080916C008F3F50
:102FA000D1F1C82F893008F0C8E0982F9C1B90936E
:102FB0006C0090916B0228E8922790936B02882313
:102FC000E9F0809193029091940220918F0226FF64
:102FD000AEC0FC012C2FACE6B2E034913D933196AB
:102FE0002150D9F79C012F5F3F4F8FEF8C0F820F3D
:102FF000932F911D90939402809393026C2F8CE6F3
:1030000092E00E94DB01CC5FCC3019F08FEF80930F
:103010006C00C0936D0084E190B39C7031F48150DA
:10302000D9F71092960210928E02DF91CF910895F7
:103030008D3209F069C0683009F0A9CF83EC809324
:103040006B028AE580936D0010928F0288818076F2
:1030500071F0CE010E94C7168F3FC1F4988197FD91
:103060008E8190E890938F0280936C0090CF2A819C
:10307000109274029981911111C01092750224E787
:1030800032E082E030939402209393029F81911169
:10309000EBCF9E81981740F7892FE6CF953029F422
:1030A0002093960224E732E0EDCF963099F49B818D
:1030B000913021F4CE010E94181708C09230D1F34C
:1030C0009330C1F39132B1F39232A1F390E4909333
:1030D0008F02C2CF983089F0993019F4209398026A
:1030E000E1CF9A3071F09B30E9F69BE49093770240
:1030F0009093B00290938302D5CF28E932E081E02B
:10310000C1CF24E732E0FBCF80918F0287FF3FCF12
:10311000CE010E9402178F3F21F48EE180936D0053
:1031200036CF882309F433CF10926C0030CFDC0106
:103130002C2FECE6F2E03D9131932150E1F752CF94
:10314000CF93DF9385B7886085BF8BB780688BBFCF
:10315000C6E7D2E08BE48983AFEAB2E011968C93A4
:103160001197E2E8F2E081838AE588838C9380837B
:10317000DF91CF910895EE0FFF1F0590F491E02DA0
:103180000994E199FECF9FBB8EBBE09A99278DB33E
:103190000895A8E1B0E042E050E00C94F418262F26
:1031A000E199FECF9FBB8EBBE09A01970DB202164C
:1031B00031F02DBB0FB6F894E29AE19A0FBE089554
:1031C0000396272F0E94D0180E94CF18252F0E9407
:1031D000D018242F0C94D0180196272F0E94D018B5
:1031E0000C94CF18DC01CB01FC01E199FECF06C0A5
:1031F000FFBBEEBBE09A31960DB20D9241505040AC
:10320000B8F70895F894FFCFC90BC90B210C210C16
:10321000730CF60BF60BF60B8F0C1B0D2A0D2A0DFB
:10322000860DF60BF60B8F0D000E000E090E090E23
:103230000B0E090E090E090E000E000E100E090EDF
:04324000090E100E55
:10324400970136169816391667166316FF5AE20068
:10325400E900EA00B500B600B700CD008301CC0058
:103264008A019201940121022302240225022602EA
:1032740027022A02B300B4006F0070008182839099
:103284006091619262936394649596970605010038
:1032940007323334353637E200E900EA00B500B6C8
:1032A40000B700CD008301CC008A01920194012172
:1032B40002230224022502260227022A02B300B4B2
:0832C400006F0070008182839D
:00000001FF
